{
  "transactions": [
    {
      "hash": "0x66657a6a59b17ae6ebf03346a207a6d3b17864a9bb7084df209cca981d7489b4",
      "transactionType": "CALL",
      "contractName": null,
      "contractAddress": "0x27b3ca58fca23705e825ed8d731efcd088b2ee86",
      "function": "mintNFT(string)",
      "arguments": [
        "ipfs://bafybeig37ioir76s7mg5oobetncojcm3c3hxasyd4rvid4jqhy4gkaheg4/?filename=0-PUG.json"
      ],
      "transaction": {
        "from": "0xeca5e7fadf270376af5e6f9bd06124bde90b58d3",
        "to": "0x27b3ca58fca23705e825ed8d731efcd088b2ee86",
        "gas": "0x414a6",
        "value": "0x0",
        "input": "0xfb37e88300000000000000000000000000000000000000000000000000000000000000200000000000000000000000000000000000000000000000000000000000000057697066733a2f2f62616679626569673337696f6972373673376d67356f6f6265746e636f6a636d3363336878617379643472766964346a71687934676b61686567342f3f66696c656e616d653d302d5055472e6a736f6e000000000000000000",
        "nonce": "0x41",
        "chainId": "0xaa36a7"
      },
      "additionalContracts": [],
      "isFixedGasLimit": false
    }
  ],
  "receipts": [
    {
      "status": "0x1",
      "cumulativeGasUsed": "0x14ff474",
      "logs": [
        {
          "address": "0x27b3ca58fca23705e825ed8d731efcd088b2ee86",
          "topics": [
            "0xddf252ad1be2c89b69c2b068fc378daa952ba7f163c4a11628f55a4df523b3ef",
            "0x0000000000000000000000000000000000000000000000000000000000000000",
            "0x000000000000000000000000eca5e7fadf270376af5e6f9bd06124bde90b58d3",
            "0x0000000000000000000000000000000000000000000000000000000000000000"
          ],
          "data": "0x",
          "blockHash": "0xd331a6f6e6f79b4d70a156101de6d7d12e33249dac8fe0a8051e9bac7aba9b87",
          "blockNumber": "0x7f3c87",
          "blockTimestamp": "0x682715e8",
          "transactionHash": "0x66657a6a59b17ae6ebf03346a207a6d3b17864a9bb7084df209cca981d7489b4",
          "transactionIndex": "0xa3",
          "logIndex": "0x20e",
          "removed": false
        }
      ],
      "logsBloom": "0x00000000000000000000000000000000000000000000000000000000000000000100000000100800000000000000000000000000000000000000000000000000000000000000000000000008000000000000000000000000000000000000000000000000020000000000000000000800000000000000000000000010000000000000000000000000000000000000000000000000000000000000000000000000000000000000000000000100000000000000000000000000000000000000000000000002000000000000000000000000000000000000000000000000000020000000000000000000000000000000000000000000000000000000100000000010",
      "type": "0x2",
      "transactionHash": "0x66657a6a59b17ae6ebf03346a207a6d3b17864a9bb7084df209cca981d7489b4",
      "transactionIndex": "0xa3",
      "blockHash": "0xd331a6f6e6f79b4d70a156101de6d7d12e33249dac8fe0a8051e9bac7aba9b87",
      "blockNumber": "0x7f3c87",
      "gasUsed": "0x2ca4b",
      "effectiveGasPrice": "0x374c60683",
      "from": "0xeca5e7fadf270376af5e6f9bd06124bde90b58d3",
      "to": "0x27b3ca58fca23705e825ed8d731efcd088b2ee86",
      "contractAddress": null
    }
  ],
  "libraries": [],
  "pending": [],
  "returns": {},
  "timestamp": 1747391977,
  "chain": 11155111,
  "commit": "4f3d56f"
}